{
  "contractName": "Faucet",
  "abi": [
    {
      "inputs": [],
      "name": "numOfFunders",
      "outputs": [
        {
          "internalType": "uint256",
          "name": "",
          "type": "uint256"
        }
      ],
      "stateMutability": "view",
      "type": "function",
      "constant": true
    },
    {
      "inputs": [],
      "name": "owner",
      "outputs": [
        {
          "internalType": "address",
          "name": "",
          "type": "address"
        }
      ],
      "stateMutability": "view",
      "type": "function",
      "constant": true
    },
    {
      "inputs": [],
      "name": "test3",
      "outputs": [
        {
          "internalType": "uint256",
          "name": "",
          "type": "uint256"
        }
      ],
      "stateMutability": "pure",
      "type": "function",
      "constant": true
    },
    {
      "inputs": [],
      "name": "testNum",
      "outputs": [
        {
          "internalType": "uint256",
          "name": "",
          "type": "uint256"
        }
      ],
      "stateMutability": "view",
      "type": "function",
      "constant": true
    },
    {
      "stateMutability": "payable",
      "type": "receive",
      "payable": true
    },
    {
      "inputs": [],
      "name": "emitLog",
      "outputs": [
        {
          "internalType": "bytes32",
          "name": "",
          "type": "bytes32"
        }
      ],
      "stateMutability": "pure",
      "type": "function",
      "constant": true
    },
    {
      "inputs": [],
      "name": "addFunds",
      "outputs": [],
      "stateMutability": "payable",
      "type": "function",
      "payable": true
    },
    {
      "inputs": [],
      "name": "getAllFunders",
      "outputs": [
        {
          "internalType": "address[]",
          "name": "",
          "type": "address[]"
        }
      ],
      "stateMutability": "view",
      "type": "function",
      "constant": true
    },
    {
      "inputs": [
        {
          "internalType": "uint256",
          "name": "withdrawAmount",
          "type": "uint256"
        }
      ],
      "name": "withdraw",
      "outputs": [],
      "stateMutability": "nonpayable",
      "type": "function"
    },
    {
      "inputs": [
        {
          "internalType": "uint8",
          "name": "index",
          "type": "uint8"
        }
      ],
      "name": "getFunderAtIndex",
      "outputs": [
        {
          "internalType": "address",
          "name": "",
          "type": "address"
        }
      ],
      "stateMutability": "view",
      "type": "function",
      "constant": true
    }
  ],
  "bytecode": "0x608060405234801561001057600080fd5b50336000806101000a81548173ffffffffffffffffffffffffffffffffffffffff021916908373ffffffffffffffffffffffffffffffffffffffff1602179055506103e8600181905550610952806100696000396000f3fe60806040526004361061008a5760003560e01c80638da5cb5b116100595780638da5cb5b14610152578063a26759cb1461017d578063ae28f1ed14610187578063af7f2c9b146101b2578063f42c13bf146101dd57610091565b80630a8e8e01146100965780630a93cf33146100c15780632e1a7d4d146100fe5780636fbbb55d1461012757610091565b3661009157005b600080fd5b3480156100a257600080fd5b506100ab610208565b6040516100b8919061076f565b60405180910390f35b3480156100cd57600080fd5b506100e860048036038101906100e391906105f9565b610211565b6040516100f591906106f7565b60405180910390f35b34801561010a57600080fd5b50610125600480360381019061012091906105d0565b610251565b005b34801561013357600080fd5b5061013c6102e8565b6040516101499190610712565b60405180910390f35b34801561015e57600080fd5b5061016761042e565b60405161017491906106f7565b60405180910390f35b610185610452565b005b34801561019357600080fd5b5061019c610572565b6040516101a9919061076f565b60405180910390f35b3480156101be57600080fd5b506101c7610578565b6040516101d4919061076f565b60405180910390f35b3480156101e957600080fd5b506101f261057e565b6040516101ff9190610734565b60405180910390f35b60006064905090565b6000600460008360ff16815260200190815260200160002060009054906101000a900473ffffffffffffffffffffffffffffffffffffffff169050919050565b8067016345785d8a000081111561029d576040517f08c379a00000000000000000000000000000000000000000000000000000000081526004016102949061074f565b60405180910390fd5b3373ffffffffffffffffffffffffffffffffffffffff166108fc839081150290604051600060405180830381858888f193505050501580156102e3573d6000803e3d6000fd5b505050565b6060600060025467ffffffffffffffff81111561032e577f4e487b7100000000000000000000000000000000000000000000000000000000600052604160045260246000fd5b60405190808252806020026020018201604052801561035c5781602001602082028036833780820191505090505b50905060005b600254811015610426576004600082815260200190815260200160002060009054906101000a900473ffffffffffffffffffffffffffffffffffffffff168282815181106103d9577f4e487b7100000000000000000000000000000000000000000000000000000000600052603260045260246000fd5b602002602001019073ffffffffffffffffffffffffffffffffffffffff16908173ffffffffffffffffffffffffffffffffffffffff1681525050808061041e90610827565b915050610362565b508091505090565b60008054906101000a900473ffffffffffffffffffffffffffffffffffffffff1681565b6000339050600360008273ffffffffffffffffffffffffffffffffffffffff1673ffffffffffffffffffffffffffffffffffffffff16815260200190815260200160002060009054906101000a900460ff1661056f576000600260008154809291906104bd90610827565b9190505590506001600360008473ffffffffffffffffffffffffffffffffffffffff1673ffffffffffffffffffffffffffffffffffffffff16815260200190815260200160002060006101000a81548160ff021916908315150217905550816004600083815260200190815260200160002060006101000a81548173ffffffffffffffffffffffffffffffffffffffff021916908373ffffffffffffffffffffffffffffffffffffffff160217905550505b50565b60015481565b60025481565b60007f48656c6c6f2c20576f726c642100000000000000000000000000000000000000905090565b6000813590506105b5816108ee565b92915050565b6000813590506105ca81610905565b92915050565b6000602082840312156105e257600080fd5b60006105f0848285016105a6565b91505092915050565b60006020828403121561060b57600080fd5b6000610619848285016105bb565b91505092915050565b600061062e838361063a565b60208301905092915050565b610643816107d4565b82525050565b610652816107d4565b82525050565b60006106638261079a565b61066d81856107b2565b93506106788361078a565b8060005b838110156106a95781516106908882610622565b975061069b836107a5565b92505060018101905061067c565b5085935050505092915050565b6106bf816107e6565b82525050565b60006106d26024836107c3565b91506106dd8261089f565b604082019050919050565b6106f181610810565b82525050565b600060208201905061070c6000830184610649565b92915050565b6000602082019050818103600083015261072c8184610658565b905092915050565b600060208201905061074960008301846106b6565b92915050565b60006020820190508181036000830152610768816106c5565b9050919050565b600060208201905061078460008301846106e8565b92915050565b6000819050602082019050919050565b600081519050919050565b6000602082019050919050565b600082825260208201905092915050565b600082825260208201905092915050565b60006107df826107f0565b9050919050565b6000819050919050565b600073ffffffffffffffffffffffffffffffffffffffff82169050919050565b6000819050919050565b600060ff82169050919050565b600061083282610810565b91507fffffffffffffffffffffffffffffffffffffffffffffffffffffffffffffffff82141561086557610864610870565b5b600182019050919050565b7f4e487b7100000000000000000000000000000000000000000000000000000000600052601160045260246000fd5b7f43616e6e6f74207769746864726177206d6f7265207468616e20302e3120457460008201527f6865722e00000000000000000000000000000000000000000000000000000000602082015250565b6108f781610810565b811461090257600080fd5b50565b61090e8161081a565b811461091957600080fd5b5056fea26469706673582212204ea50b84ed976afe907c5b636d762621685bb5a2dc5e52d252a9c00b23c995f964736f6c63430008040033",
  "immutableReferences": {},
  "source": "// SPDX-License-Identifier: MIT\npragma solidity >=0.4.22 <0.9.0;\n\nimport \"./Owned.sol\";\nimport \"./Logger.sol\";\nimport \"./IFaucet.sol\";\n\ncontract Faucet is Owned, Logger, IFaucet {\n    uint256 public numOfFunders;\n\n    mapping(address => bool) private funders;\n    mapping(uint256 => address) private lutFunders;\n\n    modifier limitWithdraw(uint256 withdrawAmount) {\n        require(\n            withdrawAmount <= 100000000000000000,\n            \"Cannot withdraw more than 0.1 Ether.\"\n        );\n        _;\n    }\n\n    receive() external payable {}\n\n    function emitLog() public pure override returns (bytes32) {\n        return \"Hello, World!\";\n    }\n\n    function addFunds() external payable override {\n        address funder = msg.sender;\n\n        if (!funders[funder]) {\n            uint256 index = numOfFunders++;\n            funders[funder] = true;\n            lutFunders[index] = funder;\n        }\n    }\n\n    function getAllFunders() external view returns (address[] memory) {\n        address[] memory _funders = new address[](numOfFunders);\n\n        for (uint256 i = 0; i < numOfFunders; i++) {\n            _funders[i] = lutFunders[i];\n        }\n\n        return _funders;\n    }\n\n    function withdraw(uint256 withdrawAmount)\n        external\n        override\n        limitWithdraw(withdrawAmount)\n    {\n        payable(msg.sender).transfer(withdrawAmount);\n    }\n\n    function getFunderAtIndex(uint8 index) external view returns (address) {\n        return lutFunders[index];\n    }\n}\n\n// const instance = await Faucet.deployed()\n// instance.addFunds({from: accounts[0], value: \"2000000000000000000\"})\n// instance.addFunds({from: accounts[1], value: \"2000000000000000000\"})\n// instance.withdraw(\"50000000000000000\", {from: accounts[1]})\n// instance.getFunderAtIndex(0)\n// instance.getAllFunders()\n",
  "sourcePath": "/home/alek/Code/faucet/contracts/FaucetContract.sol",
  "compiler": {
    "name": "solc",
    "version": "0.8.4+commit.c7e474f2.Emscripten.clang"
  },
  "schemaVersion": "3.4.3",
  "updatedAt": "2021-11-10T11:06:02.187Z",
  "networkType": "ethereum",
  "devdoc": {
    "kind": "dev",
    "methods": {},
    "version": 1
  },
  "userdoc": {
    "kind": "user",
    "methods": {},
    "version": 1
  }
}